:020000040800F2
:10000000602E0020A90200088D6B00089D57000893
:100010007D6600085B0A0008E1810008000000001E
:10002000000000000000000000000000357400081F
:10003000FD10000800000000A96C0008F976000817
:10004000C3020008C3020008C3020008C30200087C
:10005000C3020008C3020008C3020008C30200086C
:10006000C3020008C3020008C3020008C30200085C
:10007000C3020008C3020008C3020008C30200084C
:10008000C3020008C3020008C3020008FD0A0008FA
:10009000F10A0008C3020008C3020008C3020008F6
:1000A000C3020008C3020008C3020008C30200081C
:1000B000C3020008C3020008C3020008C30200080C
:1000C000C3020008C3020008C3020008C3020008FC
:1000D000C3020008AD7D0008C3020008D57E0008F9
:1000E000C3020008C3020008C3020008C3020008DC
:1000F000C3020008C3020008C3020008C3020008CC
:10010000C3020008C3020008C3020008C3020008BB
:10011000C3020008C3020008C3020008C3020008AB
:10012000C302000851100008C3020008C3020008FF
:10013000C3020008C3020008C3020008510B0008F4
:10014000450B0008C3020008C3020008C3020008F0
:100150005D1000086910000875100008DD800008B7
:10016000C3020008C3020008C3020008C30200085B
:10017000C3020008C3020008C30200080000000018
:10018000C3020008C302000800F002F800F062F8A1
:100190000AA090E8000C82448344AAF10107DA45E2
:1001A00001D100F057F8AFF2090EBAE80F0013F0D2
:1001B000010F18BFFB1A43F00103184764C1000088
:1001C00084C1000010F8013B0A4413F0030408BF87
:1001D00010F8014B1D1108BF10F8015B641E05D01B
:1001E00010F8016B641E01F8016BF9D1002D15D0D8
:1001F00010F8014B03F00C030C2BA1EB04040ABF15
:1002000010F8013BA4EB8314A4EB032405F10103D4
:1002100014F8016B5B1E01F8016BF9D5914238BFF0
:1002200010F8013BD1D3704700230024002500269D
:10023000103A28BF78C1FBD8520728BF30C148BF49
:100240000B6070471FB50BF0B6FB00F0DAF81FBD6E
:1002500010B510BD00F092F91146FFF7F3FF0AF058
:10026000D1F800F0B0F903B4FFF7F2FF03BC00F0DF
:10027000B3F900000B49D1F800C04A685CF8043BB0
:100280001068184442F8040B8C4528BFA1F1DC0C1F
:100290008A4228BFA1F1DC02C1F800C04A6020F008
:1002A00000407047F8270020094880470948004768
:1002B000FEE7FEE7FEE7FEE7FEE7FEE7FEE7FEE716
:1002C000FEE7FEE704480549054A064B7047000073
:1002D000917700088901000860280020602E002026
:1002E000602A0020602A002053EA020C00F0698096
:1002F0002DE9F04B4FF00006002B1FBFB3FA83F53A
:1003000003FA05F424FA05F65E4012BF1643B2FA6A
:1003100082F502FA05F4C5F120051EBF22FA05FC9C
:1003200044EA0C04203556EA044C4FEA144418BF42
:10033000641C4FF000084FF00009904271EB030C71
:1003400039D3002919BFB1FA81F701FA07F6B0FADB
:1003500080F700FA07F6C7F120071EBF20FA07FC56
:1003600046EA0C062037B6FBF4FCA7EB0507103F66
:1003700007F01F0BCBF120060CFA0BFB2CFA06F64C
:1003800044BFB3460026202FA4BF5E464FF0000BAB
:100390005BEA060C08BF4FF0010B19EB0B09ABFB36
:1003A000027C48EB0608C01B06FB02CC0BFB03CC0F
:1003B00071EB0C01C1E70B46024641464846BDE8D9
:1003C000F08B13B54FF000004FF00001AFF3008049
:1003D000BDE81C40704700000B4910B5A1F17C023C
:1003E0000A4CC2E93712372106E000EB104342F80D
:1003F0002130074B00FB03400B1EA1F10101F4DC8F
:1004000010BD0120E8E7000098270020E119D6661A
:10041000CD0D0100032A40F2308010F0030C00F0F3
:10042000158011F8013BBCF1020F624498BF11F82E
:1004300001CB00F8013B38BF11F8013BA2F10402E7
:1004400098BF00F801CB38BF00F8013B11F003035F
:1004500000F02580083AC0F0088051F8043B083AC3
:1004600051F804CBA0E80810F5E7121D5CBF51F865
:10047000043B40F8043BAFF30080D20724BF11F8DF
:10048000013B11F801CB48BF11F8012B24BF00F844
:10049000013B00F801CB48BF00F8012B704710B5B5
:1004A000203AC0F00B80B1E81850203AA0E818506C
:1004B000B1E81850A0E81850BFF4F5AF5FEA027C2D
:1004C00024BFB1E81850A0E8185044BF18C918C09C
:1004D000BDE810405FEA827C24BF51F8043B40F83D
:1004E000043B08BF7047D20728BF31F8023B48BF22
:1004F00011F8012B28BF20F8023B48BF00F8012B60
:1005000070474FF0000200B51346944696462039D6
:1005100022BFA0E80C50A0E80C50B1F12001BFF4BC
:10052000F7AF090728BFA0E80C5048BF0CC05DF822
:1005300004EB890028BF40F8042B08BF704748BF70
:1005400020F8022B11F0804F18BF00F8012B7047E4
:1005500070477047704710B500F008F8006810BD8C
:1005600010B5044600F002F8046010BD0048704762
:100570000028002000487047002800207546FFF73B
:10058000F9FFAE4605006946534620F00700854650
:1005900018B020B5FFF796FEBDE820404FF00006EA
:1005A0004FF000074FF000084FF0000B21F007015B
:1005B000AC46ACE8C009ACE8C009ACE8C009ACE89E
:1005C000C0098D46704710B50446AFF30080204641
:1005D000BDE81040FFF747BE01491820ABBEFEE75B
:1005E0002600020070470000464910B54A6822F410
:1005F00040324A604A6843681A434A6001684A6860
:1006000022F480724A6001684A68036942EA032260
:100610004A6001684A6822F040724A6001684A688C
:1006200083681A434A6001688A6822F400628A601B
:1006300001688A68C3681A438A60816A6FF07062D1
:10064000D14201688A6822F070628A6001688A6813
:100650000CD0836A1A438A6001688A6822F040528B
:100660008A6001688A68C36A1A4301E022F0405236
:100670008A6001688A6822F002028A6001688A68DA
:10068000037E42EA43028A6090F820100029016844
:100690004A680FD042F400624A6001684A6822F456
:1006A00060424A6001684A68174C436A04EB43336E
:1006B0001A4301E022F400624A600168CA6A22F427
:1006C0007002CA620168CA6A838B104C04EB035340
:1006D0001A43CA6201688A6822F400728A6001685B
:1006E0008A6890F8303042EA43228A6001688A685A
:1006F00022F480628A6001688A68406942EA802048
:10070000886010BD0023014000E0FFFF0000F0FF03
:1007100038B501F0F9FF002402285CD001F0F4FFA5
:10072000E8B343F6982000F013FC334890ED0B0A31
:10073000BDEEC00A10EE100A00B200902F4890EDF6
:100740000B0ABDEEC00A10EE100A03B22C4890ED61
:100750000B0ABDEEC00A10EE100A02B2294890ED55
:100760000B0ABDEEC00A10EE100A01B2264806F0D0
:10077000F4FE264890ED0B0ABDEEC00A10EE100AFA
:1007800003B2234890ED0B0ABDEEC00A10EE100A2A
:1007900002B2204890ED0B0ABDEEC00A00E01AE05C
:1007A00010EE100A01B2184806F0FDFE1A4890ED4E
:1007B0000B0ABDEEC00A10EE100A02B2174890ED07
:1007C0000B0ABDEEC00A10EE100A01B2BDE83840B7
:1007D000134806F09FBE00231A4619460A480094A3
:1007E00006F0BBFE00231A461946074806F0DBFE5A
:1007F00000221146EAE70000A41F0020541F002039
:10080000041F0020B41E00208C120020B025002000
:1008100054200020F4200020502600200026002034
:10082000B412002010B501F04BFF124C6078217813
:10083000884204D0104806F039FA0020606220781F
:100840006070012806D0002812D1BDE810400A4887
:1008500006F02CBA094890ED090A2069BDE810405D
:10086000404200EE900A0448F8EEE00A0AF03EB971
:1008700010BD000000020020B02500204C1D00200B
:1008800001221021014803F037B8000000000240A7
:1008900000221021014803F02FB8000000000240A0
:1008A0007047000001221146014803F025B80000FE
:1008B0000004024000220121014803F01DB800009D
:1008C00000040240704730B504464FF47A7502E0E8
:1008D000284600F004F8641EA4B2F9D230BD70B509
:1008E0004FF0E02400226569A8214843A169A3696B
:1008F0008B42FCD002D2A1EB030102E0A5EB030680
:1009000031440A4419468242F1D370BD10B5FFF755
:10091000C7FFFFF7D7FF08F011FF044608F096FF66
:10092000204310BD70B514460D4640F0800000F025
:1009300017F806E0552000F013F8641E05F8010BC7
:10094000E4B2002CF6D170BD10B50C4640F080002A
:1009500000F006F8552000F003F8207010BD0000EC
:1009600001B582B04FF47A700090012301AA02A968
:10097000024803F0CDFF9DF804000EBD6013002077
:100980007CB50546002016460C4600900190FFF706
:100990007FFF9220FFF7E4FF062269461220FFF74F
:1009A000C1FFFFF76DFF9DF801009DF8001041EABF
:1009B000002020809DF803009DF8021041EA0020ED
:1009C00060809DF805009DF8041041EA0020A08099
:1009D000FFF770FF082269460020FFF7A3FFFFF72B
:1009E00061FF9DF800000F2814D19DF803009DF8C9
:1009F000021041EA002028809DF805009DF80410AF
:100A000041EA002068809DF807009DF8061041EA41
:100A10000020A880FFF73CFFA220FFF7A1FF0222E1
:100A200069462220FFF77EFFFFF72AFF9DF80000AE
:100A30009DF80110C00040EA5110B0F5806F01DB55
:100A4000A0F5006030807CBD10B50C46FFF788FF34
:100A50002046BDE81040FFF783BFFEE710B5154CF8
:100A60002078D0B16078C0B1A078B0B1E078A0B102
:100A700008F05AFF6079A0B1207990B108F054FFD6
:100A8000A079002814D0E079002811D0207A00281D
:100A90000ED0BDE8104008F047BF0A2142F21070A6
:100AA00002E00A2149F64040BDE8104008F04CBF82
:100AB00010BD0000E826002000B58BB00020012109
:100AC000CDE90601039000900190029005900891F5
:100AD00004906946054802F05FF8044802F014FCEF
:100AE0000321024801F0E2FF0BB000BD8C12002090
:100AF000014802F04CB900008C120020014802F0BD
:100B000046B900008C12002000B58BB000200121F6
:100B1000CDE9060100900E220891CDE90402019072
:100B2000029003906946064802F036F8044802F045
:100B3000EBFB0321024801F0B9FF0BB000BD000040
:100B4000B4120020014802F022B90000B4120020C3
:100B5000014802F01CB90000B412002005480178D9
:100B6000002906D104490968B1F57A7F01DD012128
:100B700001707047910000202C0200202DE9F04107
:100B80002DED068B01F0C0FD4FF00008DFEDE18A8E
:100B9000E14DE24C98B101F0B7FD02280FD001F011
:100BA000B3FD03280BD001F0A3FD9FEDDD8ADD4EE0
:100BB000DD4F08B301287DD002287CD115E1A5F8CE
:100BC0000080A5F80280A5F804804646C4ED108A8E
:100BD000D64806F06BF8D548503006F067F8D34891
:100BE000A03006F063F8D148F03006F05FF82670C8
:100BF000BDEC068BBDE8F081207810B10128DCD176
:100C0000D1E0C4ED108A96ED081A97ED000ADFEDE9
:100C1000C80A70EE201AB4EEE11AF1EE10FA08DC00
:100C200070EE600A96ED081AB4EEE01AF1EE10FAD2
:100C300001D2A6F80A80D6ED080ABE4970EE600A15
:100C400010EE900AC4ED050A884201D98817708118
:100C5000B648503880ED030A96ED080A80ED040A84
:100C6000C16C8847BDEEC00A10EE100A00B200EE5B
:100C7000100AA880B8EEC01A94ED010AF1EE400AFD
:100C8000B4EEE01AF1EE10FA02D8BDEEE00A0BE085
:100C900000EE900AF8EEE00AF4EEC00AF1EE10FA67
:100CA00005DB00BFBDEEC00A10EE100AA88096ED6D
:100CB000080A01E096E0D2E0D7ED000A70EEC08AA3
:100CC000C4ED058AB5F902000AF019FB88EE880A1E
:100CD00041EC190B10EE100A0AF0FCFD41EC100B70
:100CE00008F006F853EC192B51EC100B0AF032FB0C
:100CF00041EC190BB5F900000AF001FBD4ED050A2F
:100D000041EC1A0B80EE880A10EE100A0AF0E2FDA0
:100D100041EC100B07F088FF53EC1A2B51EC100B31
:100D20000AF018FB53EC192B0AF0EAFC0AF058F809
:100D3000A061B5F902000AF0E2FAD4ED050A41EC2F
:100D4000190B80EE880A10EE100A0AF0C3FD41EC80
:100D5000100B07F069FF53EC192B51EC100B0AF044
:100D6000F9FA41EC190BB5F900000AF0C8FAD4ED14
:100D7000050A41EC1A0B80EE880A10EE100A0AF000
:100D8000A9FD41EC100B07F0B3FF53EC1A2B51EC0B
:100D9000100B0AF0DFFA53EC192B0AF053F80AF0A3
:100DA0001FF8E0615BE0FFF765FAD4E90812521A18
:100DB000521C90FBF2F302FB1300084400EE100AF1
:100DC0005D48B8EEC00A84ED040AB0EE680A09F086
:100DD00045FFD4ED040AB0EEC00A20EE200A84EDEF
:100DE000100A5FE7C4ED108A61E7C4ED108AB5F917
:100DF000040000EE100AB8EEC01A94ED010AF1EEFC
:100E0000400AB4EEE01AF1EE10FA02D8BDEEE00AA4
:100E10000AE000EE900AF8EEE00AF4EEC00AF1EE05
:100E200010FA04DBBDEEC00A10EE100AA880B5F976
:100E3000000000EE100AB8EEC00A84ED060AB5F90B
:100E4000020000EE100A3D48B8EEC00A84ED070A21
:100E500090ED010ABDEEC00A10EE100AA880B5F9A7
:100E6000040094ED070AD4ED060A01EE100A2F499A
:100E700070EE601AB8EEC11A01F1500401F1A0053C
:100E800001F1F00631EE811A70EE801A81ED031A3D
:100E900001EE100AB8EEC11A31EE811A70EEC01AD6
:100EA000F1EE600A84ED031A01EE100A70EEC00A3A
:100EB00000EE100AB8EEC11A2148B8EEC00A31EEB1
:100EC000811A30EE800A85ED031A86ED030A90ED53
:100ED000090A1C4881ED040A90ED090A1A4884EDBC
:100EE000040A90ED090A194885ED040A90ED090AF3
:100EF0000E4886ED040AC96C8847E16C2046884795
:100F0000E96C28468847F16C3046BDEC068BBDE89D
:100F1000F041084700000000C00000203001002020
:100F200033336542FC1C0020A0000020B41E0020CA
:100F30000000B443000034C3F41F00203C1E002016
:100F40005C1C0020841C0020AC1C0020D41C002051
:100F5000414200EE901A3D4AF8EEE00A92ED0B0A8B
:100F6000B4EEE00AF1EE10FA02D800EE101A0AE030
:100F700000EE900AF8EEE00AB4EEE00AF1EE10FAA4
:100F800005DB00EE100AB8EEC00A82ED0B0A2F4A0C
:100F900000EE901A5032F8EEE00A92ED0B0AB4EE31
:100FA000E00AF1EE10FA02D800EE101A0AE000EEA4
:100FB000900AF8EEE00AB4EEE00AF1EE10FA05DB72
:100FC00000EE100AB8EEC00A82ED0B0A1F4A00EECE
:100FD000101AA032B8EEC00AD2ED0B0AF4EEC00A25
:100FE000F1EE10FA02D800EE101A0AE000EE100A34
:100FF000B8EEC00AF4EEC00AF1EE10FA05DB00EE1E
:10100000100AB8EEC00A82ED0B0A104A00EE901AE0
:10101000F032F8EEE00A92ED0B0AB4EEE00AF1EEDF
:1010200010FA02D800EE101A0AE000EE900AF8EE6C
:10103000E00AB4EEE00AF1EE10FA05DB00EE100A69
:10104000B8EEC00A82ED0B0A70470000B41E002003
:10105000014802F00DBA0000AC170020014802F070
:1010600007BA0000EC160020014802F001BA0000A7
:101070000C180020014802F0FBB900008C1600207B
:1010800001681823CAB2103AB2FBF3F2054B6FF3B2
:101090000901032A9B5CC36500D9091D81650846C7
:1010A00070470000CAB9000810B5014600208B69DE
:1010B0008A6A4FF0C07453B1B3F5005F15D072B1B6
:1010C000012A0CD0022A0AD0032A09D104E01AB15D
:1010D000012A06D0022A03D1C96AC90100D501201C
:1010E00010BDC96AA142FAD010BD002AF7D0012A6A
:1010F000F2D0022AF3D0032AF3D010BD70470000CB
:101100002DE9F05F04462DED068BA5209846164686
:10111000DDF8409020706F200F46A4F80100FE4DCE
:101120006878E070FD4821688167217980F87C103B
:101130000521783008F0EBFA68784FF0310B401C4D
:10114000C1B26970A4F80570A4F80760A4F809801A
:10115000A4F80B9084F80DB03026A673E673227CB9
:1011600048F23F0322F00702521C22F038021032EC
:101170002274228A4FF4F07722F470728032228235
:10118000627C4FF4917922F03C0208326274B4F828
:1011900011204FF00A0A1A40A4F81120A27C5846E8
:1011A00002F07F026282A28A6FF30902921CA2827D
:1011B000B4F8152067F38C02A4F81520E38A69F3CC
:1011C0004F13E382228B4EF203036FF309021432B2
:1011D0002283B4F819201A40A4F81920A27E02F044
:1011E0001F026283B1FBFAF220776677A0770AFBD1
:1011F00012100028E07F20F007007DD0DFF8208368
:10120000801CE077D8ED000A9FEDC6AA80EE8A0A1E
:1012100010EE100A0AF05EFB9FEDC39B53EC192BF6
:1012200009F010FE41EC100B07F0FEFC9FEDC08BA7
:1012300051EC100B53EC182B0AF08CF89FEDBE1BF1
:1012400053EC112B0AF084F90AF02CF8218D60F38D
:101250008C012185D8ED000A80EE8A0A10EE100A72
:101260000AF038FB53EC192B09F0ECFD41EC100BA4
:1012700007F03EFD53EC182B51EC100B0AF06AF806
:101280009FEDAF1B53EC112B09F0DCFD53EC182B39
:1012900009F0D8FD0AF006F8B4F8291060F34F11F0
:1012A000A4F8291034F81F0F48F23F0220F47070A0
:1012B00080302080607820F03C0010306070B4F8FE
:1012C00001001040A4F80100A07800F07F006080C9
:1012D000A0886FF30900C01CA080B4F8050067F374
:1012E0008C00A4F80500E18869F34F11E1802089A2
:1012F0006FF30900208100E01DE084F80CB06673F4
:101300003220A07368785146B0FBF1F70AFB17074B
:101310005B461F3CF7B1B0FBF1F701FB17073FB38A
:1013200094F82E7027F00707BF1C84F82E70EF6822
:10133000012F6DD015E0401CE077208D4FF49B719C
:1013400067F38C002085B4F8290061F34F10A4F8EE
:101350002900A7E794F82E7027F007077F1C84F870
:101360002E7094F82F7027F03C07203784F82F70E8
:1013700014F82E7F40F2C62A27F038070837277066
:10138000278840F2267927F4707780372780B4F8D1
:1013900001701740A4F80170A77807F07F076780F5
:1013A000A7886FF30907FF1CA780B4F805C040F2B7
:1013B000CC6767F38C0CA4F805C0B4F806806AF318
:1013C0004F18A4F80680B4F808C06FF3090C0CF1AC
:1013D0001E0CA4F808C0B4F8098069F38C08A4F8BE
:1013E0000980B4F80AC040F29E2868F34F1CA4F8A4
:1013F0000AC0237366734FF0330C84F80EC0B0FB41
:10140000F1FC01FB1C0C2E3CBCF1000F06D015E0DA
:1014100094F82F7027F03C073F1DA7E794F83DC0D4
:101420002CF0070C0CF1010C84F83DC094F83EC080
:101430002CF03C0C0CF1200C84F83EC0B0FBF1FC0D
:1014400001FB1C0CBCF1000F14D094F83DC02CF033
:10145000070C0CF1020C84F83DC0D5F810C0BCF1AB
:10146000010F94F83EC02CF03C0C7AD00CF1200C0B
:1014700084F83EC014F83DCF2CF0380C0CF1080C69
:1014800084F800C0B4F800C02CF4707C0CF1800C1F
:10149000A4F800C0B4F801C00CEA020CA4F801C022
:1014A00094F802C00CF07F0CA4F802C0B4F804C099
:1014B0006FF3090C0CF1030CA4F804C0B4F805C0D8
:1014C00067F38C0CA4F805C0E78840F29A2C6CF303
:1014D0004F17E780278940F2722C6FF309071E37F8
:1014E0002781B4F8097069F38C07A4F8097067893B
:1014F0006CF34F176781237366733427A773B0FBB0
:10150000F1F701FB17073D3C77B3B0FBF1F701FBA7
:101510001707BFB318E024E0B401002064220020C4
:1015200044010020333365421F85EB51B81EF93F5B
:1015300000000000000034400000000000007E4079
:101540000000000000E0704094F84C7027F007079E
:10155000BF1C84F84C70AF68012F79D00A2F7DD062
:1015600009E00CF1040C83E794F84C7027F00707AE
:101570007F1C84F84C7094F84D7027F03C0720379E
:1015800084F84D7014F84C7F27F03807083727701F
:10159000278827F4707780372780677827F03C0703
:1015A00020376770B4F801701740A4F80170A7786D
:1015B00007F07F076780A7886FF30907FF1CA780E4
:1015C000B4F805C0502767F38C0CA4F805C0B4F834
:1015D00006806AF34F18A4F80680B4F808C04FF0EC
:1015E000AA0A6FF3090C0CF11E0CA4F808C0B4F899
:1015F00009806AF38C08A4F80980B4F80AC04FF493
:101600002A7868F34F1CA4F80AC0237366734FF05E
:10161000350C84F80EC0B0FBF1FC01FB1C0C4C3CFB
:10162000BCF1000F20D00A282ED094F85BC02CF01B
:10163000070C0CF1020C84F85BC0D5F808C0BCF1B3
:10164000020F7DD0BCF10A0F7BD015E000E005E071
:1016500094F84D7027F03C073F1D91E794F84D70CA
:1016600027F03C0710378BE794F85BC02CF0070C91
:101670000CF1010C84F85BC094F85CC02CF03C0CBD
:101680000CF1200C84F85CC014F85BCFB9462CF048
:10169000380C0CF1080C84F800C0B4F800C04FF40A
:1016A00022782CF4707C0CF1800CA4F800C094F823
:1016B00001C02CF03C0C0CF1200C84F801C0B4F8F3
:1016C00001C00CEA020CA4F801C094F802C00CF0AE
:1016D0007F0CA4F802C0B4F804C06FF3090C0CF13D
:1016E000030CA4F804C0B4F805C069F38C0CA4F88A
:1016F00005C0E78840F2A62C6CF34F17E7802789D6
:101700006FF309071E372781B4F809C0574667F3FE
:101710008C0CA4F809C0B4F80AC068F34F1CA4F8F4
:101720000AC0237366733623A373B0FBF1F301FB86
:1017300013035B3C13B3B0FBF1F301FB130001E0B7
:101740000EE014E040B394F86A0020F00700801C1B
:1017500084F86A00A86803287CD00A2879D014E0AD
:1017600094F85CC02CF03C0C0CF1040C8AE794F863
:101770005CC02CF03C0C0CF1100C83E794F86A0070
:1017800020F00700401C84F86A0094F86B0020F0F9
:101790003C00203084F86B0094F86A0020F0380098
:1017A000083084F86A00B4F86A0020F47070803061
:1017B000A4F86A0094F86B0020F03C00203084F814
:1017C0006B00B4F86B001040A4F86B0094F86C0048
:1017D000732200F07F00A4F86C00B4F86E006FF381
:1017E0000900C01CA4F86E00B4F86F1069F38C01F6
:1017F000A4F86F10B4F8700040F2862161F34F1026
:10180000A4F87000B4F872004FF41A716FF3090075
:101810001E30A4F87200B4F8730067F38C00A4F8CB
:101820007300B4F8740061F34F10A4F87400611DE4
:101830000E48FEF7EFFD0D487821401F07F056FFD8
:101840000220401C7828FCD3BDEC068BBDE8F09F3D
:1018500000E005E094F86B0020F03C00001D99E7E3
:1018600094F86B0020F03C00103093E7E122002058
:101870002DE9F0470446A520DDF820902070674D43
:101880003320A4F80100A878E070654888462168F4
:101890008164217980F84C101E4617460521483096
:1018A00007F035FFA878401CC1B2A970A4F80580E4
:1018B000A4F80770A4F809600020A4F80B90202277
:1018C0002318401C1A771D28FADBCD074FF0300093
:1018D0004FF012014FF01E024EF20303A07345D0E9
:1018E000E073207C20F00700401C40F0380020749A
:1018F000208A20F4707000F5A0702082607C20F0B7
:101900003C000C306074B4F8110061F38E10A4F840
:101910001100608A4B2162F3CF106082A08A6FF3BE
:101920000900801CA082B4F8150061F38C00A4F8B3
:101930001500E08A40F2B72161F34F10E082208B5E
:1019400036496FF309002083B4F819001840A4F851
:101950001900A07E00F01F00608300201C312318B6
:101960000A5C401C1A771328F9D346E03120E07353
:10197000207C20F00700401C40F038002074208AB2
:1019800020F4707000F5A0702082607C20F03C0094
:101990000C306074B4F8110061F38E10A4F81100DB
:1019A000608A40F2CC6162F3CF106082A08A6FF34C
:1019B0000900801CA082B4F8150061F38C00A4F823
:1019C0001500E08A4FF42C7161F34F10E082208BF8
:1019D00012496FF309002083B4F819001840A4F8E5
:1019E0001900A07E00F01F00608300202F31231813
:1019F0000A5C401C1A771128F9D309483722611D67
:101A00004D30FEF707FD06483C21483007F06EFEDA
:101A10000220401C7828FCD3BDE8F087B4010020E8
:101A2000642300202DE9F047644D04460B20DDF8C7
:101A300020906861A52020703320A4F80100E87888
:101A4000E0705F48884621688164217980F84C10F5
:101A50001E4617460521483007F059FEE878401C1D
:101A6000C1B2E970A4F80580A4F80770A4F8096071
:101A70000020A4F80B9002462318401C1A771D285A
:101A8000FADBCF074FF06D004FF014014FF01E024C
:101A90004FF48C734FF4DC754EF2030642D0A07302
:101AA000E073207C20F00700401C40F038002074D8
:101AB000208A20F4707040302082607C20F03C004E
:101AC0000C306074B4F8110061F38E10A4F81100AA
:101AD000608A3A4962F3CF106082A08A6FF30900EE
:101AE000801CA082B4F8150063F38C00A4F81500E4
:101AF000E08A65F34F10E082208B6FF309002083AA
:101B0000B4F819003040A4F81900A07E00F01F00BE
:101B100060830020403123180A5C401C1A770B2890
:101B2000F9D33AE06120A073E073207C20F0070035
:101B3000401C40F038002074208A20F4707000F5BA
:101B4000C0702082607C20F03C0008306074B4F8E3
:101B5000110061F38E10A4F81100608A62F3CF10B7
:101B60006082A08A6FF30900801CA082B4F815007F
:101B700063F38C00A4F81500E08A65F34F10E0824F
:101B8000208B6FF309002083B4F819003040A4F8CB
:101B90001900A07E00F01F00608309483722611DF4
:101BA0004D30FEF737FC06483C21483007F09EFDDB
:101BB0000220401C7828FCD3BDE8F087B401002047
:101BC000642300202DE9F05F0446A520DDF828B04D
:101BD00020706F209A4690460F46A4F80100FE4EF2
:101BE000DFF8F8933078E0702168C9F800102179A7
:101BF00089F804100521484607F089FD30784FF038
:101C0000310E401CC5B235700326B5FBF6F0A4F8C2
:101C10000570A4F80780A4F809A006FB1051A4F8E9
:101C20000BB0302048F23F0B4FF0320A4FF4707285
:101C30004FF4077800297DD16073A073E07314F826
:101C4000101F4FF4527721F00701491C21F0380191
:101C5000217021884FF4876C21F4707124F8011BE6
:101C6000217821F03C0108312170238859460B402E
:101C700024F8013B237803F07F0324F8023B2388F8
:101C80006FF309035B1C2380B4F8013067F38C0306
:101C9000A4F8013067884FF4207363F34F1767800F
:101CA000A7886FF30907A780B4F805706CF38C0759
:101CB000A4F80570E78863F34F17E780E37A207292
:101CC00023F007035B1C23F0070360725B1C84F89E
:101CD0000AE023F03803E372B4F80B304FF457777F
:101CE00023F47073A4F80B30237B23F03C030833F8
:101CF0002373A3890B40A38114F80D3F03F07F03E6
:101D000024F80D3B34F80B3C6FF309035B1C24F8FB
:101D10000B3C34F80A3C67F38C0324F80A3C34F893
:101D2000097C4FF4CD7363F34F1724F8097C34F822
:101D3000077C00E073E16FF3090724F8077C34F8AF
:101D4000067C40F2244C6CF38C0724F8067C34F8B3
:101D5000057C4FF4826C63F34F1724F8057C04F87C
:101D6000030C04F8020C04F801AC23784FF45C7700
:101D700023F007035B1C23F038032370238823F42C
:101D800070732380637823F03C0308336370B4F8E6
:101D900001300B40A4F80130A37803F07F03638087
:101DA000A3886FF309035B1CA380B4F8053067F3C5
:101DB0008C03A4F80530E7884FF4B47363F34F172E
:101DC000E78027896FF309072781B4F809706CF35E
:101DD0008C07A4F80970678963F34F176781207334
:101DE00060733323A373E37B23F007035B1C23F0AF
:101DF0003803E373B4F80F3023F47073A4F80F3092
:101E0000237C23F03C0308332374238A0B40238272
:101E1000637C03F07F03A4F81130B4F813304FF45F
:101E200061776FF309035B1CA4F81330A38A4FF4A6
:101E30007F7C67F38C03A382B4F815704FF49B7317
:101E400063F34F17A4F81570B4F817706FF3090710
:101E5000A4F81770278B6CF38C072783B4F81970DC
:101E60004FF47A7C63F34F17A4F81970E07620776B
:101E700034236377A37F4FF4667723F007035B1C5B
:101E800023F03803A377E38B23F47073E383E37FBA
:101E900023F03C030833E377B4F81F300B40A4F879
:101EA0001F3094F8203003F07F032384638C6FF39A
:101EB00009035B1C6384B4F8233067F38C03A4F834
:101EC0002330A78C4FF4827363F34F17A784E78CFA
:101ED0006FF30907E784B4F827706CF38C07A4F854
:101EE0002770278D63F34F17278584F82A0084F81D
:101EF0002B00352784F82C7094F82D7027F00707F5
:101F00007F1C27F0380784F82D70B4F82D7027F463
:101F10007077A4F82D7094F82E7027F03C073F1DC1
:101F200084F82E70E78D0F40E78594F82F7007F046
:101F30007F07A4F82F70B4F831706FF309077F1C86
:101F4000A4F83170678E62F38C076786B4F833C0EB
:101F50004FF42F7767F34F1CA4F833C0B4F83570F3
:101F60006FF30907A4F83570E78E62F38C07E786F4
:101F7000B4F8377063F34F17A4F8377084F839005A
:101F800084F83A00362384F83B3094F83C3023F050
:101F900007035B1C23F03803103384F83C30A38F15
:101FA00023F47073A38794F83D3023F03C0314337B
:101FB00084F83D30B4F83D300B40A4F83D3094F83F
:101FC0003E1001F07F01E187B4F840106FF3090182
:101FD000091DA4F8401003E0B40100206422002091
:101FE000B4F8411062F38C01A4F84110B4F8421027
:101FF00068F34F11A4F84210B4F844106FF30901CC
:102000001E31A4F84410B4F8451062F38C01A4F812
:10201000451034F8461F68F34F1124F87419B5FBC6
:10202000F6F106FB115101297ED1607384F80EE0B0
:10203000E07314F8103F40F24E2723F007035B1CB7
:1020400023F0380323702388714623F470734033E0
:1020500024F8013B40F2325E237823F03C0308333E
:10206000237025885B461D4024F8015B257805F028
:102070007F0524F8025B25886FF309056D1D258017
:10208000B4F8015067F38C05A4F8015066883C252C
:1020900065F34F16668034F8046F6FF3090624F871
:1020A000016BB4F800C06EF38C0C24F801CB4FF038
:1020B0002D0C34F8066B65F34F1624F8066C14F8F3
:1020C000016C04F8040C26F00706761C26F00706BF
:1020D00004F8031C761C04F8021C26F0380604F8E9
:1020E000016C34F8016C26F47076403624F8016CEB
:1020F000267826F03C060836267026881E40268064
:10210000B4F801606CF3CF16A4F80160B4F8036072
:102110006FF30906F61CA4F80360A68840F2122C9F
:102120006CF38C06A68000E064E1B4F805C04FF0C3
:102130000A0B6BF34F1CA4F805C0B4F807606FF3EB
:102140000906A4F80760268967F38C062681B4F88F
:10215000096040F23B1765F34F16A4F80960E0727E
:10216000217384F80DA0A67B26F00706761C26F0C6
:102170003806A673E68926F470764036E681E67B5B
:1021800026F03C060836E673B4F80F601E40A4F84B
:102190000F60268A67F3CF162682668A6FF30906D8
:1021A000F61C6682B4F813706EF38C07A4F81370F3
:1021B000A68A65F34F16A682E58A40F264566FF34D
:1021C0000905E582B4F8175066F38C05A4F817509A
:1021D000268B33256BF34F162683A076E176257781
:1021E000657F25F007056D1C25F038056577B4F887
:1021F0001D5025F470754035A4F81D50A57F25F0BD
:102200003C050835A577E58B1D40E583E57F4FF458
:10221000D27C05F07F05A4F81F50B4F821506FF36D
:102220000905ED1CA4F82150668C40F2EC4565F3DD
:102230008C066684B4F823606CF34F16A4F8236010
:10224000B4F825606FF30906A4F82560E68C65F301
:102250008C06E684B4F8276040F2B22565F34F1689
:10226000A4F8276084F8290084F82A10342684F81A
:102270002B6094F82C6026F00706761C26F03806B2
:1022800084F82C60A68D26F470764036A68594F8E6
:102290002D6026F03C06083684F82D60B4F82D60D9
:1022A0001E40A4F82D6094F82E6006F07F06E685A7
:1022B000268E6FF30906F61C2686B4F831704FF4AB
:1022C000257666F38C07A4F83170678E6CF34F1790
:1022D0006786A78E6FF30907A786B4F8357066F393
:1022E0008C07A4F83570E68E65F34F16E68684F801
:1022F000380084F83910352584F83A5014F83B5FDB
:1023000025F007056D1C25F038052570258825F476
:10231000707540352580657825F03C052D1D65706C
:10232000B4F801501D40A4F80150A57805F07F05D0
:102330006580A5886FF309056D1CA580B4F805506C
:1023400062F38C05A4F80550E6884FF42F7565F309
:102350004F16E68025896FF309052581B4F80950E9
:1023600062F38C05A4F8095066894FF4827565F311
:102370004F16668120736173362004F80E0F14F82F
:10238000010F20F00700401C20F0380010302070B2
:10239000208820F4707040302080607820F03C006D
:1023A00014306070B4F801001840A4F80100A0785F
:1023B00000F07F006080A0886FF30900001DA080FE
:1023C000B4F8050062F38C00A4F80500E08868F317
:1023D0004F10E08020896FF309001E30208134F80F
:1023E000090F62F38C0024F8010B208868F34F106A
:1023F00024F874097322611D09F10500FEF70AF83B
:102400007821044807F072F90220401C7828FCD398
:10241000BDE8F09F64220020098849BA0180018844
:10242000418001888180704710B50B885BBA43807A
:102430004B885BBA0381898849BA81834188838844
:10244000C91AC180B0F9061040F6B833994202DBD0
:102450004189491E4181B0F9061040F6B833D9428E
:1024600002DC4189491C4181B0F90210B0F9003009
:10247000F2EE040AC91A00EE101AB0F90A10B8EE0A
:10248000C00A60EE200A01EB8101490000EE101A3B
:102490009FED1B1AB8EEC00A00EE810A80ED080A13
:1024A0000389017B00EB4104491C01732382017BFA
:1024B000062901D3002101735FF0000100EB410305
:1024C000B3F91030491C1A440629F7DB00EE102A34
:1024D000F1EE080AB8EEC00A80EE201AB2EE000A49
:1024E00061EE000A9FED071A80EE810ADFED060A11
:1024F00080EE201A80ED091A4188818010BD00000D
:1025000000000039000010420000704210B50B8836
:102510005BBA43804B885BBA0381898849BA81835F
:1025200041888388C91AC180B0F9061040F6B833D3
:10253000994202DB4189491E4181B0F9061040F6FB
:10254000B833D94202DC4189491C4181B0F90210FB
:10255000B0F90030DFED230AC91A00EE101A4189E4
:10256000B8EEC00A60EE200A4FF4B47311FB03F119
:1025700000EE101A9FED1C1AB8EEC00A00EE810A98
:1025800080ED080A0389017B00EB4104491C0173BB
:102590002382017B062901D3002101735FF0000132
:1025A00000EB4103B3F91030491C1A440629F7DB4C
:1025B00000EE102AF1EE080AB8EEC00A80EE201AEA
:1025C0009FED0A0A61EE000A9FED091A80EE810A6A
:1025D000F3EE030A80EE201A80ED091A418881800B
:1025E00010BD00000000B443000000392DA33F429D
:1025F0000000704210B50B885BBA43804B885BBA11
:102600000381898849BA818341888388C91AC18036
:10261000B0F9061040F6B833994202DB4189491EF1
:102620004181B0F9061040F6B833D94202DC418945
:10263000491C4181B0F90210B0F90030DFED1D0AEC
:10264000C91A00EE101A4189B8EEC00A60EE200ADD
:102650004FF4B47311FB03F100EE101A9FED161A3C
:10266000B8EEC00A00EE810A80ED080A0389017BFA
:1026700000EB4104491C01732382017B062901D32D
:10268000002101735FF0000100EB4103B3F910304A
:10269000491C1A440629F7DB00EE102AF1EE080A5D
:1026A000B8EEC00A80EE201A80ED091A41888180B8
:1026B00010BD00000000B4430000003972B6FEE710
:1026C0000A4800F10A020378117863B1012B06D0A1
:1026D000032B07D19178002904D1012101E00029C1
:1026E00000D1017070470129F7D070470002002027
:1026F00001484078704700009400002001480078AD
:1027000070470000B40000200148007870470000C6
:1027100094000020F0B50C4CDDE90556678D07806C
:1027200034F8090F088060881080D4F83A001860E7
:1027300094F8390000EE100AB8EE400A85ED000A60
:10274000A0883080F0BD00005423002010B5FFF7B2
:10275000CFFF1749022824D091ED020A154881EDD8
:10276000030A154AD0ED0C0AC1ED020A30EEC00A88
:1027700010EE100A904202DD4868401E486010EEDC
:10278000100A0E4A9042486801D9401C48604FF434
:10279000B471484300EE100AB8EEC00A30EE200AC9
:1027A00010BD074890ED080A81ED020A10BD000037
:1027B000A0010020C81A00200000A5430000A5C306
:1027C000FC1C00200A480B4990ED000AD1ED000ADC
:1027D000B4EEE00AF1EE10FA07D90749D1ED000A8C
:1027E000B4EEE00AF1EE10FA01DBC0ED000A70472A
:1027F0003C1E0020B0000020AC00002010B5FFF708
:1028000083FF022816D11D4804F050FA1B485030AF
:1028100004F04CFA1948A03804F048FA1748503828
:1028200004F044FA1548A03008F030FA1348B030EC
:1028300008F02CFAFFF768FFA8B911480068A0F566
:102840003061A43905D1FFF759FF032801D104F005
:10285000EFF8FFF77BFF0B4880ED000A0B489FED78
:102860000A0A80ED010AFFF74FFF012805D104F0A5
:10287000B9FABDE8104005F047BD10BDA420002006
:102880009C000020A0010020000000003C1E002051
:1028900078B50024009490F83C20012A19D0012238
:1028A00080F83C200A6807230568092A13D9EE68D6
:1028B0000A3A02EB420293409E43EE600B788A682C
:1028C0000A3B03EB43039A400368DD682A43DA605E
:1028D00010E0022078BD2E6902EB420293409E4335
:1028E0002E610B788A6803EB43039A4003681D69E5
:1028F0002A431A614A681F23072A13D205686E6BA0
:10290000521E02EB820293409E436E630B790A884B
:102910005B1E92B203EB83039A4003685D6B2A430C
:102920005A6327E005680D2A12D22E6BD21F02EBE4
:10293000820293409E432E630B790A88DB1F92B27A
:1029400003EB83039A4003681D6B2A431A6311E06B
:10295000EE6A0D3A02EB820293409E43EE620B79DF
:102960000A880D3B92B203EB83039A400368DD6A49
:102970002A43DA62164B0568144A9D4206D10D6857
:10298000122D03D1556845F48005556005689D42B8
:1029900018D10B68102B01D0112B13D1536843F4BD
:1029A00000035360096810290CD10A490A4A0968D2
:1029B000B1FBF2F101EB8101490000E0491E0091F9
:1029C0000029FBD180F83C40002078BD0023014065
:1029D000002001401800002040420F0070B50400A4
:1029E0004FF0000503D0206C002610B107E0012055
:1029F00070BD204600F01CF8666484F83C60206CD2
:102A0000C00610D4206C20F4885040F002002064EE
:102A10002046FDF7E9FD6664206C20F0020040F0DE
:102A20000100206400E0012584F83C60284670BD68
:102A300010B586B0044614216846FDF762FD174BB9
:102A40002268002116489A4209D1016841F4807138
:102A50000160006800F48070059006B010BD114B55
:102A60009A42FAD1026842F480620260006800F47F
:102A7000806005900A481438026842F02002026023
:102A8000006800F020000590181500900320CDE9A3
:102A900001016946044800F037FEDEE700200140EE
:102AA00044380240002201400014024090F82020E7
:102AB000012A07D0022A05D0416A41F480214162EF
:102AC00001207047006842690A4342610020704754
:102AD000F0B590F820500468A468012D05D0022DAF
:102AE00003D0416A41F4802153E014F0406F01D1DA
:102AF000E5004BD5C4F30164022C03D9416A41F4CB
:102B0000000146E00125A5401D608D684FF4C073AB
:102B10009DB1CE6835434E6845EAC605066803EBAD
:102B20000417F5514FF4C275076805EB04150E69DB
:102B30007E51097D012905D009E00E88CD6845EA5E
:102B40004655EBE701684E5946F480764E511179AF
:102B5000D2F805504FF4C67641EA0525016806EB28
:102B600004168D511178D2F801204FF4C47541EA52
:102B70000221026805EB04155151006803EB0411B2
:102B8000425842F0010242500020F0BD416A41F437
:102B9000001141620120F0BD10B590F82020012AFB
:102BA00007D0022A05D0416A41F480214162012008
:102BB00010BD3B48D0F8002242F00102C0F80022CC
:102BC000D0F8002222F47C52C0F80022D0F8002273
:102BD0004B6A42EA0322C0F800220A7D02F01F037A
:102BE00001229A40D0F81C329343C0F81C32CB69C2
:102BF000B3B9D0F80C329343C0F80C328C894B68CF
:102C000064F31F434C6900EBC404C4F840320C89E0
:102C10000B6864F31F434C6900EBC404C4F84432EE
:102C2000CB69012B16D1D0F80C321343C0F80C320B
:102C30000C884B6864F31F434C6900EBC404C4F870
:102C400040320C89CB6864F31F434C6900EBC40429
:102C5000C4F844328B69002BD0F804320ED01343F1
:102C6000C0F804320B69002BD0F8143208D013439B
:102C7000C0F81432096A012904D008E09343EFE751
:102C80009343F5E7D0F81C121143C0F81C12D0F89A
:102C9000001221F00101C0F80012002010BD000058
:102CA00000640040704730B590F82040012C05D0FA
:102CB000022C03D0416A41F480215DE004680029C0
:102CC00055D02469A40754D04FF4D874056804EB98
:102CD00001142D5915F00405956005682D594ED045
:102CE000ED08556005682C5904F00204D4604FF4D7
:102CF000DA74056804EB01142D5905F00F05156110
:102D000005682D59C5F30725956105682C59240CD4
:102D100054614FF4DC72046802EB0112A4581C7079
:102D20000468A458240A5C700468A458240C9C709D
:102D30000468A258120EDA704FF4DE72046802EBD7
:102D40000112A4581C710468A458240A5C71046818
:102D5000A458240C9C710468A258120EDA71006801
:102D600081B1016941F020010161002030BDE468BA
:102D7000A8E7416A41F400114162012030BD6D0DA8
:102D80001560AFE7C16841F02001C160EDE72DE9B2
:102D9000F05F0546006800244669D0F80490876813
:102DA000D0F80CB0D0F810A0D0F81880F10748D0B7
:102DB000F90714D001218160B80703D5284600F037
:102DC000D0FA0CE0780702D54FF4006407E038072A
:102DD00002D54FF4805402E0284600F0C1FAF8050D
:102DE00016D529684FF480708860B80503D5284649
:102DF00000F0B9FA0CE0780502D544F4005407E07D
:102E0000380502D544F4804402E0284600F0AAFACE
:102E1000F80316D529684FF480308860B80303D5CD
:102E2000284600F0A2FA0CE0780302D544F40044EE
:102E300007E0380302D544F4803402E0284600F06D
:102E400093FA300707D55FEACB6004D529681020D4
:102E500044F40074C86070074FF0080707D55FEAB4
:102E60000B7004D52868C760284600F0A9F9B007A0
:102E700006D52868C068800702D0284600F0A2F96D
:102E8000700607D55FEACA6004D52968102044F4AB
:102E900080640861B00607D55FEA0A7004D5286827
:102EA0000761284600F02CFAF00606D5286800696C
:102EB000800702D0284600F024FAB00308D55FEA64
:102EC000C96005D5296810204860284600F01AFA24
:102ED000F00307D55FEA097004D5286847602846E3
:102EE00000F044FA300446D55FEA497040D5F00559
:102EF00004D55FEAC87001D044F00104B00504D5E0
:102F00005FEA887001D544F00204700504D55FEAD9
:102F1000487001D544F00404300529D518F0700F2D
:102F200026D008F07000402815D006DC102809D003
:102F300020280AD0302816D10AE050280ED0602868
:102F400011D10EE044F008040DE044F010040AE052
:102F500044F0200407E044F0400404E044F080041E
:102F600001E044F480742868816921F07001816176
:102F7000296804204860002C05D0686A20436862F4
:102F80002846FFF78FFEBDE8F09F70B5040003D020
:102F900094F8200010B104E0012070BD204600F03C
:102FA00081F82068016841F00101016000F0AAFC8D
:102FB0000546052604E000F0A5FC401B0A2811D8B0
:102FC00020684068C007F6D02068016821F002013F
:102FD000016000F097FC05460BE000F093FC401BFD
:102FE0000A2806D9606A40F40030606284F82060E4
:102FF000D2E7206840688007EFD4207E012820684F
:1030000001683DD021F080010160607E01282068C8
:10301000016838D021F040010160A07E01282068BD
:10302000016833D021F020010160E07E0128206892
:1030300001682ED041F010010160207F0128206836
:10304000016829D021F008010160607F0128206813
:10305000016824D021F004010160D4E90201084391
:10306000D4E90412114308436168491E08432168EA
:10307000C86100206062012084F82000002070BD3B
:1030800041F08001C0E741F04001C5E741F0200177
:10309000CAE721F01001CFE741F00801D4E741F081
:1030A0000401D9E7F0B587B0044614216846FDF75E
:1030B00028FA3E4B3E48DFF8F0E01968D4F800C02B
:1030C0003B4A03250226092710300024491CF445F9
:1030D0002AD11960012907D1016841F0007101600E
:1030E000006800F000700590106840F00800106063
:1030F0001068CDE9005600F00800CDE9047069467B
:103100002C48CDE9024500F0FFFA002201211320EE
:1031100000F008FF132000F0F7FE002211461420F3
:1031200000F000FF14203AE0DFF88CE0F44538D1DD
:10313000D0F800C04CF0806CC0F800C0D0F800C0DF
:1031400001290CF0806CCDF814C0196007D101681A
:1031500041F000710160006800F000700590106897
:1031600040F002001060106802AB00F00200059011
:103170006020CDE9000683E8B00069460F4800F002
:10318000C3FA002203213F2000F0CCFE3F2000F0D4
:10319000BBFE00220121402000F0C4FE402000F0D0
:1031A000B3FE07B0F0BD0000006400400000002046
:1031B00030380240000C0240006800400004024029
:1031C0007047000010B501688AB04A6992077FD540
:1031D0000822CA6045490A68521C0A606B4602AA66
:1031E0000021FFF760FD4248007801285AD102987B
:1031F000404CA0F20120092854D2DFE800F0050D70
:10320000161F394228314B0069463B48FFF77EF9CB
:1032100000F078FB206045E0374869462830FFF72A
:1032200075F900F06FFB60603CE033486946503050
:10323000FFF76CF900F066FBA06033E02E486946AA
:103240007830FFF763F900F05DFBE0602AE02A4880
:103250006946F030FFF7E8F800F054FBA06121E088
:1032600069462648FFF752F900F04CFBE06119E08F
:10327000224869462838FFF749F900F043FB2062ED
:1032800010E01D486946A030FFF7B4F900F03AFBA2
:10329000606107E0194869467838FFF7ABF900F03C
:1032A00031FB2061FFF730FA002811D10298A0F518
:1032B000007001380ED001280FD0022811D0032849
:1032C00006D10D486946783000E001E0FFF7A4F828
:1032D0000AB010BD69460848F6E707486946283035
:1032E000F2E7054869465030EEE700002C02002066
:1032F00091000020F42600205C1C00209C1D002072
:10330000704770477047000070B5044690F8200081
:10331000012804D0606A40F40020606218E00220B6
:1033200084F820002068016821F00101016000F0AC
:10333000E9FA05460EE000BF00F0E4FA401B0A2857
:1033400008D9606A40F400306062052084F82000EB
:10335000012070BD20684068C007EDD1606270BD7B
:10336000704770477047704770477047704710B597
:10337000040002D0607910B106E0012010BD0020E9
:103380002071204600F004F801206071002010BD7B
:1033900008B500680649884208D10648016841F42A
:1033A00080510160006800F48050009008BD00006A
:1033B00000300240303802402DE9F0410446876D6C
:1033C00000F0A0FA064694F835000025022806D041
:1033D0008020606584F834500120BDE8F0812068C9
:1033E000016821F0160101602068416921F0800127
:1033F0004161206C08B9A06C20B12068016821F0FF
:10340000080101602068016821F0010101600CE001
:1034100000F078FA801B052807D92020606503207A
:1034200084F8350084F83450D7E720680068C00776
:10343000EED194F85C103F208840B860012084F8F9
:10344000350084F834500020C7E790F83510022981
:1034500003D08021416501207047052180F8351097
:103460000068016821F00101016000207047000040
:103470002DE9F84304464FF00009CDF80090634869
:103480004FF41651A56D0068B0FBF1F72E6894F863
:103490005C10082000FA01F131420FD021680A685F
:1034A00052070BD50A6822F004020A6094F85C10F7
:1034B0008840A860606D40F00100606594F85C1081
:1034C0004FF0010808FA01F0304208D0216849693C
:1034D000090604D5A860606D40F00200606594F8AC
:1034E0005C1004208840304208D0216809688907B0
:1034F00004D5A860606D40F00400606594F85C102D
:1035000010208840304218D021680968090714D576
:10351000A86020680168490304D50068000308D545
:10352000A16C07E00168C90503D4016821F0080116
:103530000160216C09B12046884794F85C10202076
:103540008840304231D021680968C9062DD5A8606D
:1035500094F8350005282068016806D0490347D54E
:10356000006800031DD4616C1CE021F016010160AD
:103570002068416921F080014161206C08B9A06C8C
:1035800020B12068016821F00801016094F85C1006
:103590003F208840A86084F8358084F83490216DFD
:1035A0001FE0E16B09B120468847606D00282BD0F1
:1035B000606DC00714D0052084F8350020680168CC
:1035C00021F0010101600098401C0090B84203D82E
:1035D00020680068C007F6D184F8358084F83490FC
:1035E000E16C002910D001B02046BDE8F043084747
:1035F0000168C905D5D4016821F01001016084F883
:10360000358084F83490CCE7BDE8F88318000020BA
:103610002DE9F041044600F075F906465CB1022040
:1036200084F83500002584F834502068016821F0C2
:10363000010101600DE00120BDE8F08100F062F9B8
:10364000801B052805D920206065032084F83500FB
:10365000F2E720680068C007F0D1226811682048AE
:103660000140D4E901031843D4E903363343184336
:1036700063691843A3691843E3691843236A18432D
:103680000843616A042903D1D4E90B1319430843A1
:10369000106020684069666A20F0070130460E43DA
:1036A000012704280CD1A06A0643E06A40B12046F5
:1036B000FDF7FAFC20B14020606584F83570BAE768
:1036C000206846612046FDF7DBFC94F85C203F2132
:1036D00091408160656584F835700020ACE700009A
:1036E0003F8010F070B5044600F00CF90546601CF0
:1036F00002D004480078044400F004F9401BA042C2
:10370000FAD370BD0C0000202DE9F84FDFF8BCA102
:10371000002201250AF1040B03264FF00F090BF1DB
:10372000040E00BF0B6805FA02F42340A34270D1D7
:103730000F7907F00307012F01D0022F16D18768F8
:103740004FEA420806FA08FC27EA0C07D1F80CC039
:103750000CFA08FC4CEA070CC0F808C04768A743FD
:103760000C79C4F3001494403C4344600C79E44366
:10377000A4070AD0C4684FEA420C06FA0CF7BC430F
:103780008F6807FA0CF72743C7600C7904F003042D
:10379000022C12D1D40800EB840CDCF8204057072F
:1037A000FF0E09FA07F824EA0804D1F8108008FA95
:1037B00007F848EA0408CCF8208004684FEA420C75
:1037C00006FA0CF7BC430F7907F0030707FA0CF76A
:1037D000274307604C6814F4403F70D03C4C276886
:1037E00047F480472760246822F0030704F48044EC
:1037F0000094384C07EB040CDCF8084897074FEAB4
:10380000177809FA08F7BC43334FB84202D10027B2
:1038100024E054E0314FB84201D101271EE0304F7F
:10382000B84201D1022719E02E4FB84201D1032737
:1038300014E02D4FB84201D104270FE02B4FB842BE
:1038400001D105270AE02A4FB84201D1062705E039
:10385000284FB84201D1072700E0082707FA08F7E8
:103860002743CCF80878DAF800405746D1F804C06E
:103870009C435FEACC3C00D51C433C60DBF8004035
:103880005F46D1F804C09C435FEA8C3C00D51C43E2
:103890003C60DEF800407746D1F804C09C435FEA04
:1038A000CC2C00D51C433C60084F0C373C68D1F849
:1038B00004C09C435FEA8C2C00D51C433C60521C26
:1038C000102AFFF42FAFBDE8F88F0000003C014044
:1038D0004438024000300140000002400004024031
:1038E00000080240000C0240001002400014024098
:1038F00000180240001C02400AB1816170470904AF
:10390000FBE7000001488068704700000C000020C1
:1039100070B5040025D094F83D00002520B984F846
:103920003C50204600F04CFA242084F83D002068EA
:10393000016821F0010101602068016841F4004143
:1039400001602068016821F40041016000F054FC2E
:103950004D4A6168914201D84C4900E04C49884287
:1039600001D2012070BD4B492368B0FBF1F15E68C4
:1039700026F03F060E435E606368934206D94FF41B
:10398000967359434FF47A73B1FBF3F12368491CE2
:103990001E6A26F03F06314319626168914210D8D1
:1039A0004900401EB0FBF1F2521CC2F30B02042A84
:1039B00001D2042022E0B0FBF1F0401CC0F30B0068
:1039C0001CE0A268F2B301EBC10303EB0116431E36
:1039D000B3FBF6F35B1C43F480431B0549D092B361
:1039E00001EBC10202EB0111401EB0FBF1F0401CE3
:1039F000C0F30B0040F4804040F400402168CA69E5
:103A00004CF6FF739A431043C861D4E90710014391
:103A10002068026822F0C00211430160D4E903016A
:103A200001432068826848F2FF339A431143816062
:103A3000D4E9050108432168CA6822F0FF02104357
:103A4000C86001E00EE016E02068016841F0010165
:103A500001602564202084F83D00256384F83E50F1
:103A6000002070BD01EB4106431EB3FBF6F35B1C67
:103A7000B3E70120C2E701EB4101401EB0FBF1F0CA
:103A8000401CC0F30B00B7E7A086010080841E0035
:103A900000093D0040420F002DE9FF4F83B09A46D8
:103AA000DDE9119793460446DDF84080FFF72AFFD1
:103AB000054694F83D00202870D119230122714950
:103AC0002046009501F07AFF0028F5D194F83C00DB
:103AD000012863D0012084F83C0020680168C907F0
:103AE00003D1016841F0010101602068016821F4FF
:103AF00000610160222084F83D00402084F83E00EF
:103B000000262664C4F82480A4F82A90608D2085BD
:103B10005D48E062CDE9007553465A462046049957
:103B200001F054FE00287CD1208DD0B1012821D095
:103B30000228206824D0416980690090208D0328E4
:103B400069D801282BD0514902283B464FF000028A
:103B5000009559D08846204601F030FF002860D1FA
:103B60003CE02068416981690091016841F400717D
:103B7000016077E02068016821F480610160F0E76E
:103B8000016821F4806101602068016841F40061EE
:103B90000160206841698069009063E06FE02A4617
:103BA0003946204601F089FF98BB20680069616AA8
:103BB00008704EE02068016841F4007101602068DF
:103BC0000069616A0870606A401C6062218D491E4C
:103BD0002185618D491E6185216838E02068016872
:103BE00021F48061016020680069616A0870606A80
:103BF000401C6062208D401E2085608D401E6085C7
:103C00003B46002241460095204601F0D7FE00B910
:103C1000D0E706E0FFE72A463946204601F04DFF8F
:103C200018B1012007B0BDE8F08F20680069616A13
:103C30000870606A401C6062218D491E2185618D7B
:103C4000491E618521684A69D24352070AD409692D
:103C50000170606A401C6062208D401E2085608D6E
:103C6000401E6085208D00287FF468AF202084F8F6
:103C70003D0084F83E6084F83C600020D2E70220DA
:103C8000D0E70000020010000000FFFF0400010068
:103C90002DE9FF4F83B09A46DDE91197934604461C
:103CA000DDF84080FFF72EFE054694F83D00202801
:103CB0007FD11923012240492046009501F07EFE64
:103CC000002876D194F83C00012872D0012084F8B5
:103CD0003C0020680168C90703D1016841F0010177
:103CE00001602068016821F400610160212084F8EE
:103CF0003D00402084F83E0000262664C4F824805D
:103D0000A4F82A90608D20852C48E062CDE90075EA
:103D100053465A462046049901F0D6FD70B930E06A
:103D20002A463946204601F0FBFE58B1206C042893
:103D300004D12068016841F400710160012007B0DE
:103D4000BDE8F08F606A216800780861606A401CF5
:103D50006062218D491E89B22185628D521E628565
:103D600022685369DB435B070BD469B100781061AB
:103D7000606A401C6062208D401E2085608D401E60
:103D80006085208D0028CBD12A463946204601F097
:103D9000EFFD0028CAD154F83D0B016841F40071D1
:103DA0000160202004F81E09E67766770020C6E748
:103DB000FFE70220C3E70000020010000000FFFF41
:103DC000F0B587B0044614216846FCF79AFB1D49FC
:103DD0002068884233D11C480024016841F0040166
:103DE0000160016801F004010591016841F00101E1
:103DF00001600068122500F0010005904FF400708A
:103E0000CDE9000502AA0326042782E8D00069460E
:103E10000E48FFF779FCB801CDE9000502AA694612
:103E200082E8D0000A48FFF76FFC074810300168AD
:103E300041F400010160006800F40000059007B043
:103E4000F0BD0000005C0040303802400008024035
:103E50000000024002488168027811448160704786
:103E60000C0000200B4810B5016841F4007101609E
:103E7000016841F480610160016841F48071016072
:103E8000032000F06FF80F2000F006F800F024F88F
:103E9000002010BD003C024070B50D4D04464FF4AB
:103EA0007A712878B1FBF0F00A490968B1FBF0F0AB
:103EB00000F01FFE48B9102C07D200222146501EE8
:103EC00000F030F800206C6070BD012070BD000073
:103ED0000C000020180000200A4808B5016841F4D1
:103EE00080410160006800F4804000900548001F98
:103EF000016841F080510160006800F0805000903E
:103F000008BD000044380240002809DB00F01F0211
:103F1000012191404009800000F1E020C0F800112B
:103F200070470000F0B40E4B1B680C46C3F302232D
:103F3000C3F10705042D00D90425191D072901D255
:103F4000002300E0DB1E012606FA05F1491E214090
:103F500099409E40761E16403143F0BC04F03EBAB4
:103F60000CED00E0064900F0070208684FF6FF0379
:103F7000184040EA0220034A1043086070470000DE
:103F80000CED00E00000FA052DE9F8430546006855
:103F90004FF00109C1074FF0000601D1400727D5B6
:103FA000DFF80C81C8F86860FFF7ACFC0746414CAD
:103FB00005E000BFFFF7A6FCC01B022857D8206809
:103FC0000001F7D468688101287A41EA0070394914
:103FD00084310860C8F86890FFF794FC074604E055
:103FE000FFF790FCC01B022841D820680001F7D5DC
:103FF0002878800752D52F484030016841F0805121
:10400000016000682C4C00F080500090206840F463
:1040100080702060FFF776FC074604E0FFF772FC33
:10402000C01B022823D82068C005F7D5214C703466
:10403000206810F4407020D0A98901F440718142B9
:104040001BD020681D4920F44070C1F800900E601C
:1040500020602068C00710D0FFF754FC064641F2EC
:10406000883707E0FFF74EFC801BB84202D90320D7
:10407000BDE8F88320688007F4D5E9680D48C1F3EE
:1040800001220830032A0BD0016821F4F8110160E5
:104090002068A989C1F30B01084320600020E7E7ED
:1040A0000268074B22F4F81219400A430260EFE756
:1040B000000047420038024000700040400E474276
:1040C000FFFCFF0F2DE9F0470E46050065D0DFF835
:1040D0001481D8F80000F7B200F00700B04207D210
:1040E00088F80070D8F8000000F00700B04254D102
:1040F00028683D4C810712D5400703D5206840F45D
:10410000E05020602878000703D5206840F4604024
:1041100020602068A96820F0F0000843206028781B
:10412000C0072DD0304968680839012812D002280C
:1041300013D0032811D00968890700292DDA2168D6
:1041400021F0030101432160FFF7DCFB814641F2CE
:10415000883A0EE009688903EFE709688901ECE70E
:10416000FFF7D0FBA0EB0901514502D90320BDE8C0
:10417000F0872068696800F00C00B0EB810FEFD188
:10418000D8F80010404601F00701B14207D9077086
:10419000006800F00700B04201D00120E7E728786E
:1041A000400705D52068E96820F4E0500843206006
:1041B0002878000706D52068296920F4604040EA85
:1041C000C100206000F038F82168084AC1F30311EB
:1041D000515CC8400649086006480068FFF75CFE6D
:1041E0000020C4E7003C024008380240D2B9000871
:1041F00018000020100000200448054900680968E4
:10420000044AC1F38221515CC84070471800002065
:1042100008380240E2B90008044805490068096806
:10422000044AC1F34231515CC84070471800002075
:1042300008380240E2B90008154810B5006810F0CF
:104240000C02144813D01449042A0FD0082A0ED1A6
:104250000F4C241F2268236802F03F025B0207D53F
:104260002068C0F38810A0FB010106E0084610BDDD
:104270002168C1F38811A1FB00010023FCF734F889
:104280002168C1F30141491C4900B0FBF1F010BDA8
:10429000083802400024F400001BB7002DE9F84F55
:1042A00004006ED02078DFF84C93C007A9F1040514
:1042B0004AD009F104000168C1F38101012908D045
:1042C0000068C0F3810002280AD1D9F8000040023A
:1042D00006D52868800337D560680028E1D033E030
:1042E0006068B0F5803F10D0B0F5A02F286810D0DE
:1042F00020F480302860286820F4802028606068DE
:10430000A8B1FFF7FFFA06460DE0286840F48030B8
:10431000F4E740F480202860F7E700BFFFF7F2FAE7
:10432000801B642873D828688003F7D50CE0FFF75A
:10433000E9FA064605E000BFFFF7E4FA801B6428AF
:10434000F0D828688003F7D42078DFF8AC828007A3
:104350004FF0000A3ED5A748001D016811F00C0F70
:1043600008D00068C0F3810002280BD1D9F8000002
:10437000400207D42868800716D5E068012800D1DC
:1043800012E033E1E068B8B10120C8F80000FFF79F
:10439000B9FA064605E000BFFFF7B4FA801B022811
:1043A000C0D828688007F7D52868216920F0F80070
:1043B00040EAC10028600DE0C8F800A0FFF7A2FAAB
:1043C000064604E0FFF79EFA801B02281FD82868E3
:1043D0008007F7D42078000722D5864F8748616987
:1043E000703771B101210160FFF78CFA064604E0D5
:1043F000FFF788FA801B022809D838688007F7D5AC
:104400000EE0C0F800A0FFF77DFA064605E082E066
:10441000FFF778FA801B02287DD838688007F7D428
:104420002078400768D5DFF8CCB100270BF13C0BB2
:10443000DBF80000C0000BD4DBF8001041F0805125
:10444000CBF80010DBF80000012700F0805000904E
:104450006B4E3068C00510D4306840F48070306016
:10446000FFF750FA009005E0FFF74CFA0099401A68
:10447000022850D83068C005F6D55E4EA0686C366C
:1044800001280FD00528306810D020F001003060DE
:10449000306820F004003060A068B8B1FFF732FA4D
:1044A00000900FE0306840F00100F4E740F00400B5
:1044B0003060F7E7FFF726FA0099411A41F2883099
:1044C000814266D830688007F4D50EE0FFF71AFA0B
:1044D000009007E0FFF716FA0099411A41F2883080
:1044E000814256D830688007F4D42FB1DBF8001031
:1044F00021F08051CBF80010A069C8B33D49091DD7
:104500000968C1F3810102294AD00228504607D028
:10451000C8F8600000E03CE0FFF7F4F904463BE037
:104520004746C8F86000FFF7EDF9064605E000BF12
:10453000FFF7E8F9801B02282BD828688001F7D400
:10454000D4E907010843A16A2E4A490802EB014158
:10455000626A41EA8211084394F82C1040EA016132
:10456000C9F8001001203866FFF7CCF9044606E0D0
:104570003EE000BFFFF7C6F9001B022809D82868F3
:104580008001F7D534E000BFFFF7BCF9001B02281B
:1045900002D90320BDE8F88F28688001F4D427E011
:1045A0000128F7D0D9F80000E26900F480019142B7
:1045B0001CD1226A00F03F01914217D147F6C07129
:1045C000626A0140B1EB821F10D1A26A4FF0FF3343
:1045D00000F4403103EB5202B1EB024F06D194F8E4
:1045E0002C1000F07060B0EB016F01D00120D1E71A
:1045F0000020CFE70438024000004742800E4742C7
:10460000007000400000FFFF70B5040003D0607927
:10461000002510B105E0012070BD2571204600F095
:104620000DF8022060712068016841F0040101600A
:1046300001206071A560002070BD000008B5006811
:104640000649884208D10648016841F040010160EE
:10465000006800F04000009008BD0000000806500F
:104660003438024070B5040002D0607F10B106E01B
:10467000012070BD00202077204600F049F802207C
:1046800060772168CA20486221685320486220462A
:1046900002F04CFCFF25042618BB206881681B4AE9
:1046A000114081602168886862681043D4E904235E
:1046B0001A43104388602168E06808612068016936
:1046C000228941EA024101612068C16821F080012C
:1046D000C16020688068800607D4204600F036F864
:1046E00018B1206845626677C2E72068016C21F442
:1046F000802101642068016CA26911430164206873
:10470000456201206077002070BD0000BFFF8FFF71
:104710001FB50021009101910291039100680849A1
:1047200088420CD102200090064803906846FFF7AB
:104730002BFC08B1FDF7C2FF0349012008601FBD33
:104740000028004000031E003C0E474270B504469E
:104750000068C16821F0A001C160FFF7D3F80546E9
:104760004FF47A7607E000BFFFF7CCF8401BB04269
:1047700001D9032070BD2068C0688006F4D50020F0
:1047800070BD70B5040009D0606A002540B1256194
:104790006561A56294F8510040B10CE0012070BD44
:1047A0006068B0F5827FF4D0E561F2E784F850509C
:1047B000204600F045F8022084F851002068016886
:1047C00021F040010160A088218900F4827001F489
:1047D00004410843A18901F400610843217C01F0F0
:1047E00002010843217D01F001010843218B01F4FE
:1047F00000710843217F01F03801084394F820102C
:1048000001F080010843218D01F400510843216823
:104810000860A069042101EA104094F8241001F016
:1048200010010843216848602068C16921F40061D3
:10483000C1616565012084F85100002070BD000051
:10484000F0B587B0044614216846FBF75AFE2B4F9B
:10485000226800232A490224032505262948BA4252
:104860002AD1274A1432136843F480531360126824
:1048700002F4805205920A6842F002020A600A6855
:1048800002F0020205920A6842F001020A60096819
:10489000012701F00101059118218DE89200CDE971
:1048A00003566946FEF730FF80208DE89100CDE980
:1048B0000356694614481CE0144FBA421BD1104AF3
:1048C0001032176847F480471760126802F480427C
:1048D00005920A6842F002020A60096802AA01F021
:1048E000020105914FF46041CDE9001482E86800AF
:1048F0006946FEF709FF07B0F0BD00000030014037
:1049000030380240000402400000024000380040FD
:104910002DE9F84F044690F8500000270A9E1D46E6
:1049200092468B464FF0010901280ED0012084F8F1
:104930005000FEF7E7FF804694F8510061680128B7
:104940000CD0B1F5827F07D102E00220BDE8F88FDC
:10495000A16809B9042801D00227C2E0BBF1000F09
:1049600027D0BAF1000F24D01DB394F851000428C9
:1049700002D0052084F8510000206065C4F838A0FA
:10498000E587A587C4F830B0E586A5862064606415
:1049900020680168490603D4016841F040010160C4
:1049A000E068B0F5006F606805D0E8B3012D46D02F
:1049B0007FE0012795E008B1012D39D1206B2168F6
:1049C0000088C860206B801C2063E08E401EE0865B
:1049D0002EE02068816889070FD5E18E69B1B9F1B1
:1049E000010F0AD1216B0988C160206B801C2063F4
:1049F000E08E401EE0864FF0000920688168C907FC
:104A00000CD0E18F51B1C068A16B0880A06B801CF5
:104A1000A063E08F401EE0874FF00109FEF772FFB0
:104A2000A0EB0800B04200E009E001D3701C50D1B7
:104A3000E08E0028CDD1E08F0028CAD13FE0206B66
:104A4000216800780873206B401C2063E08E401EB4
:104A5000E0862EE02068816889070FD5E18E69B174
:104A6000B9F1010F0AD1216B09780173206B401C49
:104A70002063E08E401EE0864FF0000920688168C8
:104A8000C9070CD0E18F51B1C068A16B0870A06B51
:104A9000401CA063E08F401EE0874FF00109FEF745
:104AA00031FFA0EB0800B04202D3701C01D010E02F
:104AB0007EB1E08E0028CDD1E08F0028CAD14246D9
:104AC0003146204602F02EFC28B1012720206065E7
:104AD00007E0032705E0A06818B92068C16880686E
:104AE0000090012084F85100002084F850003846DE
:104AF0002CE710B5401EB0F1807F01D3012010BD1E
:104B00004FF0E02460610F21601703F067FC002084
:104B1000A06107202061002010BD10B590F83C2056
:104B2000012A22D0012280F83C20CA688C6822F435
:104B3000407222434C6822F4806222430C6822F4C3
:104B4000006222430C6922F4805222434C6922F411
:104B500000522243C969002322F480420A430168BB
:104B60004A6480F83C30002010BD022010BD0000D7
:104B700070B590F83C20012A32D0012480F83C40E6
:104B8000022280F83D2003685A689D6822F0700672
:104B90000A6832435A60134B02689A4214D0B2F149
:104BA000804F11D0104B9A420ED0104B9A420BD02E
:104BB0000F4B9A4208D00F4B9A4205D00E4B9A42A7
:104BC00002D00E4B9A4204D1496825F08003194364
:104BD000916080F83D40002180F83C10084670BD8F
:104BE000022070BD000001400004004000080040A9
:104BF000000C00400004014000400140001800404B
:104C000010B5040003D094F83D0010B107E0012076
:104C100010BD002084F83C00204600F01FF8022060
:104C200084F83D00211D206802F0CCFD012084F8AD
:104C3000460084F83E0084F83F0084F8400084F881
:104C4000410084F8420084F8430084F8440084F86A
:104C5000450084F83D00002010BD000008B5234940
:104C6000026823488A4207D1016841F001010160CE
:104C7000006800F001000AE01D491E4B091F9A421E
:104C800007D1086840F00200086008681FE0009043
:104C900008BD194B9A4207D1086840F0040008602B
:104CA000086800F00400F2E7144B9A4207D1086844
:104CB00040F008000860086800F00800E7E71049C5
:104CC0008A4207D1016841F002010160006800F0EA
:104CD0000200DCE70B498A42DAD1016841F4003175
:104CE0000160006800F40030D1E7000000000140DE
:104CF000443802400004004000080040000C00401E
:104D0000000401400044014090F83D10012901D009
:104D100001207047022180F83D1000681149884247
:104D200014D0B0F1804F11D00F4988420ED00F49F6
:104D300088420BD00E49884208D00E49884205D0DF
:104D40000D49884202D00D49884204D1816801F0A2
:104D50000701062903D0016841F00101016000202C
:104D600070470000000001400004004000080040BF
:104D7000000C0040000401400040014000180040C9
:104D800070B5044690F83C000025012817D0012694
:104D900084F83C60022084F83D002068826822F09C
:104DA000770222F47F4282600868502838D00DDCF8
:104DB00020284FD005DC90B3102811D14AE0022002
:104DC00070BD302846D040280AD13BE060282FD063
:104DD00070280DD0B0F5805F03D0B0F5005F12D021
:104DE000012584F83D60002084F83C00284670BD11
:104DF000CB68D1E90121206802F055FD2068816867
:104E000041F0770109E0CB68D1E90121206802F087
:104E10004AFD2068816841F480418160E1E719E042
:104E2000CA684968206802F013FE5021206806E035
:104E3000CA684968206802F01CFE6021206802F000
:104E40003CFDCEE7CA684968206802F001FE4021B7
:104E50002068F4E7226801461046F0E72DE9F041AA
:104E600086B0044614216846FBF74BFB474A21688D
:104E7000474802240125914210D1016841F01001F8
:104E800001600068694600F0100005904FF4D440BE
:104E90008DE831003F48CDE9034513E03E4ADFF895
:104EA000FC80914213D1016841F004010160006867
:104EB000694600F00400059090158DE831000394D8
:104EC00040460494FEF720FC06B0BDE8F081344A69
:104ED000032691420ED1016841F00801016000688B
:104EE000694600F00800059010148DE871002D4807
:104EF0000494E7E72C4A914210D1016841F0800107
:104F000001600068694600F0800005904FF4E050B1
:104F10008DE83100039425480494D3E7244A4027C0
:104F2000914220D1016841F480710160016801F46F
:104F300080710591016841F00401016000680097EB
:104F4000CDE9014500F00400CDE904606946039411
:104F50001848FEF7D9FB0097CDE90145CDE9034696
:104F600069464046AEE7144A9142ADD1016841F02E
:104F70002001016000680097CDE9014500F02000A4
:104F8000CDE90460694603940C489BE700000140AA
:104F90003038024000100240000400400008024087
:104FA00000080040000C0240000C0040001C0240C1
:104FB000000401400020024000440140001402406F
:104FC00070B5044690F83C0000260D4601280FD02D
:104FD000012084F83C006AB1042A1DD0082A2FD091
:104FE0000C2A3FD00126002084F83C00304670BDDA
:104FF000022070BD206802F069FC2068816941F0E0
:10500000080181612068816921F0040181612068C3
:1050100081692A69114311E0206802F087FC206849
:10502000816941F4006181612068816921F48061B6
:105030008161206881692A6941EA02218161D2E7A0
:10504000206802F0A9FC2068C16941F00801C16133
:105050002068C16921F00401C1612068C1692A6921
:10506000114311E0206802F0CBFC2068C16941F4D3
:105070000061C1612068C16921F48061C16120685B
:10508000C1692A6941EA0221C161ACE710B5040097
:1050900003D094F83D0010B107E0012010BD0020BE
:1050A00084F83C00204600F01EF8022084F83D0001
:1050B000211D206802F086FB012084F8460084F858
:1050C0003E0084F83F0084F8400084F8410084F8F2
:1050D000420084F8430084F8440084F8450084F8D2
:1050E0003D00002010BD704710B50446022249B1B2
:1050F00004290ED0082913D094F84100012816D0B5
:10510000012010BD94F83E000128F9D184F83E201A
:105110000FE094F83F000128F2D184F83F2008E026
:1051200094F840000128EBD184F8402001E084F895
:1051300041200122206802F0A9FB16492068164A86
:10514000884201D0904203D1436C43F4004343644E
:105150002068884213D0B0F1804F10D00F498842A8
:105160000DD00F4988420AD00E49884207D090429C
:1051700005D00D49884202D00C49884204D181688B
:1051800001F00701062903D0016841F00101016027
:10519000002010BD00000140000401400004004058
:1051A00000080040000C0040004001400018004092
:1051B00070477047F8B5016804460868CA684B69CB
:1051C00010F00F0F4FF0000559D003F0010602F464
:1051D0009077374365D0C10705D0D10503D5216C41
:1051E00041F001012164410705D5D90703D0216CA5
:1051F00041F002012164810705D5D90703D0216C54
:1052000041F004012164010707D502F02001314378
:1052100003D0216C41F008012164216C00293AD0AF
:10522000800604D5900602D5204602F063FC206873
:105230004069216CC0F38010090700D460B3204698
:1052400002F031FC20684069400621D52068143006
:1052500050E8001F21F0400140E80012002AF5D17B
:10526000A06BA8B16C490165A06BFEF7EEF80028B1
:1052700011D0A06B016D01B0BDE8F0400847830676
:105280000FD593060DD52046BDE8F84002F032BC9C
:105290002046FFF78EFFF8BD2046FFF78AFF256402
:1052A000F8BD266B2023012E79D1C60677D5D60608
:1052B00075D50868486800904869400640D5A16BDC
:1052C000086840680004000CEAD0A28D8242E7D949
:1052D000E085C869B0F5807F2DD020680C3050E89B
:1052E000001F21F4807140E80012002AF5D12068E7
:1052F000143050E8001F21F0010140E80012002A9C
:10530000F5D12068143050E8001F21F0400140E83A
:105310000012002AF5D184F83E30256320680C3055
:1053200050E8001F21F0100140E80012002AF5D1DA
:10533000A06BFEF741F8A08DE18D401A81B229E003
:10534000A08DE18D401A81B2E08D0028A8D00029FF
:10535000A6D020680C3050E8002F22F4907240E86C
:105360000026002EF5D12068143050E8002F22F0DE
:10537000010240E80026002EF5D184F83E30256376
:1053800020680C3050E8002F22F0100240E8002383
:10539000002BF5D12046FFF70BFFF8BDFFE7050610
:1053A0002BD5150629D594F83D002128F5D1A06804
:1053B000B0F5805F01D12069B0B1206A411C216243
:1053C000216800784860E08C401E0004000CE084F6
:1053D000E3D12068C16821F08001C1602068C16804
:1053E00041F04001C160D8E7206A0088C0F308009E
:1053F0004860206A801C2062E5E74006CDD5500653
:10540000CBD5CA68204622F04002CA6084F83D30FD
:1054100000F0C3F9C1E70000977A000870B50400F6
:1054200004D094F83D00002510B106E0012070BDC5
:1054300084F83C50204600F023F8242084F83D00F6
:105440002068C16821F40051C160204602F0B2FB1F
:105450002068016921F4904101612068416921F0CF
:105460002A0141612068C16841F40051C16025648E
:10547000202084F83D0084F83E00002070BD00002C
:105480002DE9F04F87B0044614216846FBF739F840
:105490008948DFF820821438D4F800C0864B0221F6
:1054A00003228615002507154FF0070B4FF400392E
:1054B000C44569D1D3F800C04CF0100CC3F800C04B
:1054C0001B6803F010030593036843F002030360B5
:1054D000036803F002030593036843F001030360CC
:1054E00000688A4600F0010005908020CDE9000A9E
:1054F0000DF1080C90468CE8200969466F48FEF7CC
:1055000003F97000CDE9000A0DF1080A69468AE83E
:1055100020096B48FEF7F8F8DFF8ACB16949584646
:105520004FF0006AE0E8021A4021B846A0E82201E4
:10553000890240F814598561C0E907615846CBF8E3
:105540002450FEF765F808B1FDF7B8F85E4F5D48E6
:105550006037C4F834B03038CBF838403860C7E929
:1055600001A5C7E9035807F118017D6181E86002D0
:1055700038467D62FEF74CF808B1FDF79FF8A76347
:10558000BC6307B0BDE8F08FDFF84081C4453BD174
:10559000494B1B1FD3F800C04CF4802CC3F800C04B
:1055A0001B6803F480230593036843F0040303603E
:1055B000006800F0040005904FF440608DE823007F
:1055C000CDE9032B69464248FEF79EF8DFF8F880E4
:1055D000404908F1C008404602C04FF00061E0E8D1
:1055E0000215E0E8035740F8045C80E8600240469A
:1055F000C8F82450FEF70CF808B1FDF75FF8C4F8BE
:105600003880C8F83840BCE7DFF8CC80C445B8D152
:10561000D3F800C04CF0200CC3F800C01B6803F0A6
:1056200020030593036843F040030360006800F023
:10563000400005904FF484408DE823000820CDE918
:10564000032069462548FEF75FF8DFF894801D497E
:105650004046903902C04FF0206AE0E802A5E0E839
:10566000035740F8045C80E860024046C8F82450C4
:10567000FDF7CEFF08B1FDF721F8194E1148C4F827
:10568000388060361838C8F83840E6E8020A40200A
:10569000A1C6800246F81459B561C6E90750104802
:1056A00075626030FDF7B4FF08B1FDF707F8666377
:1056B000B46366E700100140443802400004024031
:1056C00000000240B86402408C16002000480040F0
:1056D0000008024028600240001401400018024007
:1056E000AC170020704700002DE9F843044690F8FD
:1056F0003D001F4616460D4620284CD1C5B1BEB10F
:1057000094F83C00012846D0012084F83C004FF07A
:105710000008C4F84080212084F83D00FEF7F2F82C
:10572000A6848146E684A068B0F5805F03D004E0DB
:105730000120BDE8F883206928B12E465FF00005FE
:1057400084F83C800EE00026FAE78021204602F033
:10575000B7FAA0B9AEB116F8010B21684860E08C29
:10576000401EE084E08C4B464FF00002009700287A
:10577000EBD14FF04001204602F0A2FA30B10320F5
:10578000D7E735F8020BC0F30800E6E7202084F8DD
:105790003D000020CDE70220CBE77047FEE701681F
:1057A0004A69D24352050FD46FF480624A610021E6
:1057B00040F8301F202242738173026942F00402D4
:1057C0000261017301207047002070472DE9F84FF6
:1057D0000446006889460B9D01689846174641F4C7
:1057E000806101602068016841F48071016000956A
:1057F0004FF0011B0022594620460A9B00F0DEF8BC
:105800004FF4007A40B120680068C00501D5C4F8A3
:1058100040A00320BDE8F88F216809F0FE00086170
:105820002B46284920460A9A00F0FCF8F0BB206875
:105830004169806900902A4620460A9900F070F973
:1058400040B1206C04283AD12068016841F400710D
:10585000016034E0FEB2B8F1010F09D02168380AC6
:1058600008612A4620460A9900F05AF90028E8D132
:10587000206806612A4620460A9900F051F900285E
:10588000DFD12068016841F4807101600095002239
:10589000594620460A9B00F091F80028B3D12168B0
:1058A00009F0FF0040F00100086100E007E02B462E
:1058B000044920460A9A00F0B5F80028AAD0012031
:1058C000A8E70000020001002DE9F8430446006843
:1058D0000D46DDE9089701689846164641F4807147
:1058E00001604B4600224FF001112046009700F066
:1058F00065F848B120680068C00502D54FF4007013
:1059000020640320BDE8F883216805F0FE000861EB
:105910003B464A461549204600F084F888B920687D
:105920004169806900903A464946204600F0F8F8FF
:1059300048B1206C042804D12068016841F400714A
:1059400001600120DEE7F5B2B8F1010F09D021684E
:10595000300A08613A464946204600F0E1F800283E
:10596000E7D1206805610020CCE7000002000100BB
:1059700070B516460D4604460DE02046FFF70FFFB2
:1059800008B1012070BD681C05D0FDF7BBFF801B6E
:10599000A84207D835B120684069C0434007ECD41D
:1059A000002070BD002044F8300F20216173A073E7
:1059B000216941F0200121612073E2E72DE9F047E0
:1059C0001E4690460D460446C1F30747DDF8209079
:1059D00008E0701C06D0FDF795FFA0EB0900B0426F
:1059E0000FD876B12068012F18D0806925EA000011
:1059F0000004000C14D000214145EAD00020BDE88D
:105A0000F087002044F8300F20216173A0732169D2
:105A100041F02001216120730120F0E74069E5E7B2
:105A20000121E9E72DE9F0479A4691460E460446E2
:105A300000254FF02008C1F3074725E020684069A2
:105A4000C043400514D42068016841F4007101602E
:105A500021686FF480604861256384F83D8084F894
:105A60003E50206C40F00400206484F83C501FE05D
:105A7000B9F1FF3F08D0FDF745FFA0EB0A0149450A
:105A80000CD8B9F1000F09D02068012F13D080691C
:105A900026EA00000004000C0BD0CFE744F8305F8A
:105AA00084F80D80A573206940F0200020612573E3
:105AB0000120BDE8F0874069EAE72DE9F0410025C3
:105AC00090460E460446202717E04069C043C006B2
:105AD0000CD454F8301B6FF01000486144F8105992
